{"abi":[{"type":"constructor","inputs":[{"name":"_addresses","type":"address[]","internalType":"address[]"}],"stateMutability":"nonpayable"},{"type":"function","name":"confirmTransaction","inputs":[{"name":"_txIndex","type":"uint256","internalType":"uint256"}],"outputs":[],"stateMutability":"nonpayable"},{"type":"function","name":"executeTransaction","inputs":[{"name":"_txIndex","type":"uint256","internalType":"uint256"}],"outputs":[],"stateMutability":"nonpayable"},{"type":"function","name":"getOwners","inputs":[],"outputs":[{"name":"","type":"address[]","internalType":"address[]"}],"stateMutability":"view"},{"type":"function","name":"getTransaction","inputs":[{"name":"_txIndex","type":"uint256","internalType":"uint256"}],"outputs":[{"name":"","type":"address","internalType":"address"},{"name":"","type":"address","internalType":"address"},{"name":"","type":"uint256","internalType":"uint256"},{"name":"","type":"bool","internalType":"bool"},{"name":"","type":"uint256","internalType":"uint256"}],"stateMutability":"view"},{"type":"function","name":"getTransactionsCount","inputs":[],"outputs":[{"name":"","type":"uint256","internalType":"uint256"}],"stateMutability":"view"},{"type":"function","name":"isConfirmed","inputs":[{"name":"","type":"uint256","internalType":"uint256"},{"name":"","type":"address","internalType":"address"}],"outputs":[{"name":"","type":"bool","internalType":"bool"}],"stateMutability":"view"},{"type":"function","name":"isOwner","inputs":[{"name":"","type":"address","internalType":"address"}],"outputs":[{"name":"","type":"bool","internalType":"bool"}],"stateMutability":"view"},{"type":"function","name":"minNumberConfirmationsRequired","inputs":[],"outputs":[{"name":"","type":"uint256","internalType":"uint256"}],"stateMutability":"view"},{"type":"function","name":"owners","inputs":[{"name":"","type":"uint256","internalType":"uint256"}],"outputs":[{"name":"","type":"address","internalType":"address"}],"stateMutability":"view"},{"type":"function","name":"revokeTransaction","inputs":[{"name":"_txIndex","type":"uint256","internalType":"uint256"}],"outputs":[],"stateMutability":"nonpayable"},{"type":"function","name":"submitTransaction","inputs":[{"name":"_to","type":"address","internalType":"address"},{"name":"_amount","type":"uint256","internalType":"uint256"}],"outputs":[],"stateMutability":"nonpayable"},{"type":"function","name":"transactions","inputs":[{"name":"","type":"uint256","internalType":"uint256"}],"outputs":[{"name":"from","type":"address","internalType":"address"},{"name":"to","type":"address","internalType":"address"},{"name":"amount","type":"uint256","internalType":"uint256"},{"name":"executed","type":"bool","internalType":"bool"},{"name":"numConfirmations","type":"uint256","internalType":"uint256"}],"stateMutability":"view"},{"type":"event","name":"ConfirmTransaction","inputs":[{"name":"owner","type":"address","indexed":true,"internalType":"address"},{"name":"txIndex","type":"uint256","indexed":true,"internalType":"uint256"}],"anonymous":false},{"type":"event","name":"Deposit","inputs":[{"name":"sender","type":"address","indexed":true,"internalType":"address"},{"name":"amount","type":"uint256","indexed":false,"internalType":"uint256"},{"name":"balance","type":"uint256","indexed":false,"internalType":"uint256"}],"anonymous":false},{"type":"event","name":"ExecuteTransaction","inputs":[{"name":"owner","type":"address","indexed":true,"internalType":"address"},{"name":"txIndex","type":"uint256","indexed":true,"internalType":"uint256"}],"anonymous":false},{"type":"event","name":"RevokeTransaction","inputs":[{"name":"owner","type":"address","indexed":true,"internalType":"address"},{"name":"txIndex","type":"uint256","indexed":true,"internalType":"uint256"}],"anonymous":false},{"type":"event","name":"SubmitTransaction","inputs":[{"name":"owner","type":"address","indexed":true,"internalType":"address"},{"name":"txIndex","type":"uint256","indexed":true,"internalType":"uint256"},{"name":"amount","type":"uint256","indexed":false,"internalType":"uint256"},{"name":"balance","type":"uint256","indexed":false,"internalType":"uint256"}],"anonymous":false}],"bytecode":{"object":"0x60806040526002805534801561001457600080fd5b50604051610f64380380610f648339810160408190526100339161018d565b600381511161007e5760405162461bcd60e51b81526020600482015260126024820152710cc81859191c995cdcc81c995c5d5a5c995960721b60448201526064015b60405180910390fd5b60005b815181101561015457600160008383815181106100a0576100a0610251565b6020908102919091018101516001600160a01b031682528101919091526040016000205460ff16156101075760405162461bcd60e51b815260206004820152601060248201526f6f776e6572206e6f7420756e6971756560801b6044820152606401610075565b600082828151811061011b5761011b610251565b6020908102919091018101516001600160a01b0316600090815260019182905260409020805460ff191682179055919091019050610081565b5050610267565b634e487b7160e01b600052604160045260246000fd5b80516001600160a01b038116811461018857600080fd5b919050565b600060208083850312156101a057600080fd5b82516001600160401b03808211156101b757600080fd5b818501915085601f8301126101cb57600080fd5b8151818111156101dd576101dd61015b565b8060051b604051601f19603f830116810181811085821117156102025761020261015b565b60405291825284820192508381018501918883111561022057600080fd5b938501935b828510156102455761023685610171565b84529385019392850192610225565b98975050505050505050565b634e487b7160e01b600052603260045260246000fd5b610cee806102766000396000f3fe608060405234801561001057600080fd5b50600436106100b45760003560e01c806380f59a651161007157806380f59a651461019e5780639ace38c2146101cc578063a0e67e2b146101df578063c01a8c84146101f4578063cbc0fdbb14610207578063ee22610b1461021057600080fd5b8063025e7c27146100b95780631d43b653146100e95780632f54bf6e146100fe57806333ea3dc814610131578063578cb8f914610179578063735631ad1461018b575b600080fd5b6100cc6100c7366004610aeb565b610223565b6040516001600160a01b0390911681526020015b60405180910390f35b6100fc6100f7366004610b20565b61024d565b005b61012161010c366004610b4a565b60016020526000908152604090205460ff1681565b60405190151581526020016100e0565b61014461013f366004610aeb565b610407565b604080516001600160a01b0396871681529590941660208601529284019190915215156060830152608082015260a0016100e0565b6004545b6040519081526020016100e0565b6100fc610199366004610aeb565b610495565b6101216101ac366004610b6c565b600360209081526000928352604080842090915290825290205460ff1681565b6101446101da366004610aeb565b610617565b6101e7610667565b6040516100e09190610b98565b6100fc610202366004610aeb565b6106c9565b61017d60025481565b6100fc61021e366004610aeb565b6108fd565b6000818154811061023357600080fd5b6000918252602090912001546001600160a01b0316905081565b3360009081526001602052604090205460ff166102855760405162461bcd60e51b815260040161027c90610be5565b60405180910390fd5b600480546040805160a081018252338082526001600160a01b03878116602084019081528385018881526000606086018181526002546080880190815260018a018b55999091529451600588027f8a35acfbc15ff81a39ae7d344fd709f28e8600b4aa8c65c6b64bfe7fe36bd19b810180549286166001600160a01b031993841617905592517f8a35acfbc15ff81a39ae7d344fd709f28e8600b4aa8c65c6b64bfe7fe36bd19c840180549190951691161790925590517f8a35acfbc15ff81a39ae7d344fd709f28e8600b4aa8c65c6b64bfe7fe36bd19d82015591517f8a35acfbc15ff81a39ae7d344fd709f28e8600b4aa8c65c6b64bfe7fe36bd19e8301805491151560ff1990921691909117905593517f8a35acfbc15ff81a39ae7d344fd709f28e8600b4aa8c65c6b64bfe7fe36bd19f9091015551909182917f1ce412233b9c70bfe1896f6a9bfcb1f74125ecec8faa30076cc31ff3cee8c995906103fa9086904790918252602082015260400190565b60405180910390a3505050565b60008060008060008560048054905081106104345760405162461bcd60e51b815260040161027c90610c08565b60006004888154811061044957610449610c33565b6000918252602090912060059091020180546001820154600283015460038401546004909401546001600160a01b039384169d939092169b50995060ff90921697509095509350505050565b3360009081526001602052604090205460ff166104c45760405162461bcd60e51b815260040161027c90610be5565b600454819081106104e75760405162461bcd60e51b815260040161027c90610c08565b81600481815481106104fb576104fb610c33565b600091825260209091206003600590920201015460ff161561052f5760405162461bcd60e51b815260040161027c90610c49565b60006004848154811061054457610544610c33565b600091825260208083208784526003825260408085203386529092529220546005909102909101915060ff166105af5760405162461bcd60e51b815260206004820152601060248201526f1d1e081b9bdd0818dbdb999a5c9b595960821b604482015260640161027c565b60018160040160008282546105c49190610c8c565b90915550506000848152600360209081526040808320338085529252808320805460ff191690555186927f1ad870073a851011d852bccd8634c29c7c0ac2265ba96d2bab01285001a465a891a350505050565b6004818154811061062757600080fd5b6000918252602090912060059091020180546001820154600283015460038401546004909401546001600160a01b039384169550919092169260ff169085565b606060008054806020026020016040519081016040528092919081815260200182805480156106bf57602002820191906000526020600020905b81546001600160a01b031681526001909101906020018083116106a1575b5050505050905090565b3360009081526001602052604090205460ff166106f85760405162461bcd60e51b815260040161027c90610be5565b6004548190811061071b5760405162461bcd60e51b815260040161027c90610c08565b6000828152600360209081526040808320338452909152902054829060ff161561077e5760405162461bcd60e51b81526020600482015260146024820152731d1e08185b1c9958591e4818dbdb999a5c9b595960621b604482015260640161027c565b826004818154811061079257610792610c33565b600091825260209091206003600590920201015460ff16156107c65760405162461bcd60e51b815260040161027c90610c49565b6000600485815481106107db576107db610c33565b60009182526020808320600590920290910180546001600160a01b03168352600190915260409091205490915060ff166108275760405162461bcd60e51b815260040161027c90610be5565b600085815260036020908152604080832033845290915290205460ff16156108885760405162461bcd60e51b81526020600482015260146024820152731d1e08185b1c9958591e4818dbdb999a5c9b595960621b604482015260640161027c565b60008581526003602090815260408083203384529091528120805460ff19166001908117909155600483018054919290916108c4908490610ca5565b9091555050604051859033907f5cbe105e36805f7820e291f799d5794ff948af2a5f664e580382defb6339004190600090a35050505050565b3360009081526001602052604090205460ff1661092c5760405162461bcd60e51b815260040161027c90610be5565b6004548190811061094f5760405162461bcd60e51b815260040161027c90610c08565b816004818154811061096357610963610c33565b600091825260209091206003600590920201015460ff16156109975760405162461bcd60e51b815260040161027c90610c49565b6000600484815481106109ac576109ac610c33565b9060005260206000209060050201905060025481600401541015610a125760405162461bcd60e51b815260206004820152601860248201527f6e6f7420656e6f75676820636f6e6669726d6174696f6e730000000000000000604482015260640161027c565b60038101805460ff1916600190811790915581015460028201546040516000926001600160a01b031691908381818185875af1925050503d8060008114610a75576040519150601f19603f3d011682016040523d82523d6000602084013e610a7a565b606091505b5050905080610ab75760405162461bcd60e51b81526020600482015260096024820152681d1e0819985a5b195960ba1b604482015260640161027c565b604051859033907f5445f318f4f5fcfb66592e68e0cc5822aa15664039bd5f0ffde24c5a8142b1ac90600090a35050505050565b600060208284031215610afd57600080fd5b5035919050565b80356001600160a01b0381168114610b1b57600080fd5b919050565b60008060408385031215610b3357600080fd5b610b3c83610b04565b946020939093013593505050565b600060208284031215610b5c57600080fd5b610b6582610b04565b9392505050565b60008060408385031215610b7f57600080fd5b82359150610b8f60208401610b04565b90509250929050565b6020808252825182820181905260009190848201906040850190845b81811015610bd95783516001600160a01b031683529284019291840191600101610bb4565b50909695505050505050565b6020808252600990820152683737ba1037bbb732b960b91b604082015260600190565b6020808252601190820152701d1e08191bd95cc81b9bdd08195e1a5cdd607a1b604082015260600190565b634e487b7160e01b600052603260045260246000fd5b6020808252601390820152721d1e08185b1c9958591e48195e1958dd5d1959606a1b604082015260600190565b634e487b7160e01b600052601160045260246000fd5b81810381811115610c9f57610c9f610c76565b92915050565b80820180821115610c9f57610c9f610c7656fea264697066735822122052afa39a2e38ca95e7a201603cbc7399635d5479db9c6fb703a64dab7717ae9764736f6c63430008190033","linkReferences":{}},"methodIdentifiers":{"confirmTransaction(uint256)":"c01a8c84","executeTransaction(uint256)":"ee22610b","getOwners()":"a0e67e2b","getTransaction(uint256)":"33ea3dc8","getTransactionsCount()":"578cb8f9","isConfirmed(uint256,address)":"80f59a65","isOwner(address)":"2f54bf6e","minNumberConfirmationsRequired()":"cbc0fdbb","owners(uint256)":"025e7c27","revokeTransaction(uint256)":"735631ad","submitTransaction(address,uint256)":"1d43b653","transactions(uint256)":"9ace38c2"},"id":25}