{"abi":[{"type":"constructor","inputs":[{"name":"_addresses","type":"address[]","internalType":"address[]"}],"stateMutability":"nonpayable"},{"type":"function","name":"isConfirmed","inputs":[{"name":"","type":"uint256","internalType":"uint256"},{"name":"","type":"address","internalType":"address"}],"outputs":[{"name":"","type":"bool","internalType":"bool"}],"stateMutability":"view"},{"type":"function","name":"isOwner","inputs":[{"name":"","type":"address","internalType":"address"}],"outputs":[{"name":"","type":"bool","internalType":"bool"}],"stateMutability":"view"},{"type":"function","name":"minNumberConfirmationsRequired","inputs":[],"outputs":[{"name":"","type":"uint256","internalType":"uint256"}],"stateMutability":"view"},{"type":"function","name":"owners","inputs":[{"name":"","type":"uint256","internalType":"uint256"}],"outputs":[{"name":"","type":"address","internalType":"address"}],"stateMutability":"view"},{"type":"function","name":"submitTransaction","inputs":[{"name":"_to","type":"address","internalType":"address"},{"name":"_amount","type":"uint256","internalType":"uint256"}],"outputs":[],"stateMutability":"nonpayable"},{"type":"function","name":"transactions","inputs":[{"name":"","type":"uint256","internalType":"uint256"}],"outputs":[{"name":"from","type":"address","internalType":"address"},{"name":"to","type":"address","internalType":"address"},{"name":"amount","type":"uint256","internalType":"uint256"}],"stateMutability":"view"},{"type":"event","name":"SubmitTransaction","inputs":[{"name":"owner","type":"address","indexed":true,"internalType":"address"},{"name":"txIndex","type":"uint256","indexed":true,"internalType":"uint256"},{"name":"amount","type":"uint256","indexed":false,"internalType":"uint256"},{"name":"balance","type":"uint256","indexed":false,"internalType":"uint256"}],"anonymous":false}],"bytecode":{"object":"0x60806040526002805534801561001457600080fd5b506040516106833803806106838339810160408190526100339161018d565b600381511161007e5760405162461bcd60e51b81526020600482015260126024820152710cc81859191c995cdcc81c995c5d5a5c995960721b60448201526064015b60405180910390fd5b60005b815181101561015457600160008383815181106100a0576100a0610251565b6020908102919091018101516001600160a01b031682528101919091526040016000205460ff16156101075760405162461bcd60e51b815260206004820152601060248201526f6f776e6572206e6f7420756e6971756560801b6044820152606401610075565b600082828151811061011b5761011b610251565b6020908102919091018101516001600160a01b0316600090815260019182905260409020805460ff191682179055919091019050610081565b5050610267565b634e487b7160e01b600052604160045260246000fd5b80516001600160a01b038116811461018857600080fd5b919050565b600060208083850312156101a057600080fd5b82516001600160401b03808211156101b757600080fd5b818501915085601f8301126101cb57600080fd5b8151818111156101dd576101dd61015b565b8060051b604051601f19603f830116810181811085821117156102025761020261015b565b60405291825284820192508381018501918883111561022057600080fd5b938501935b828510156102455761023685610171565b84529385019392850192610225565b98975050505050505050565b634e487b7160e01b600052603260045260246000fd5b61040d806102766000396000f3fe608060405234801561001057600080fd5b50600436106100625760003560e01c8063025e7c27146100675780631d43b653146100975780632f54bf6e146100ac57806380f59a65146100df5780639ace38c21461010d578063cbc0fdbb14610146575b600080fd5b61007a61007536600461032a565b61015d565b6040516001600160a01b0390911681526020015b60405180910390f35b6100aa6100a536600461035f565b610187565b005b6100cf6100ba366004610389565b60016020526000908152604090205460ff1681565b604051901515815260200161008e565b6100cf6100ed3660046103ab565b600360209081526000928352604080842090915290825290205460ff1681565b61012061011b36600461032a565b6102ea565b604080516001600160a01b0394851681529390921660208401529082015260600161008e565b61014f60025481565b60405190815260200161008e565b6000818154811061016d57600080fd5b6000918252602090912001546001600160a01b0316905081565b3360009081526001602052604090205460ff166101d65760405162461bcd60e51b81526020600482015260096024820152683737ba1037bbb732b960b91b604482015260640160405180910390fd5b6004805460408051606081018252338082526001600160a01b03878116602084019081528385018881526001870188556000979097529251600386027f8a35acfbc15ff81a39ae7d344fd709f28e8600b4aa8c65c6b64bfe7fe36bd19b810180549284166001600160a01b031993841617905593517f8a35acfbc15ff81a39ae7d344fd709f28e8600b4aa8c65c6b64bfe7fe36bd19c8501805491909316911617905593517f8a35acfbc15ff81a39ae7d344fd709f28e8600b4aa8c65c6b64bfe7fe36bd19d9091015551909182917f1ce412233b9c70bfe1896f6a9bfcb1f74125ecec8faa30076cc31ff3cee8c995906102dd9086904790918252602082015260400190565b60405180910390a3505050565b600481815481106102fa57600080fd5b60009182526020909120600390910201805460018201546002909201546001600160a01b03918216935091169083565b60006020828403121561033c57600080fd5b5035919050565b80356001600160a01b038116811461035a57600080fd5b919050565b6000806040838503121561037257600080fd5b61037b83610343565b946020939093013593505050565b60006020828403121561039b57600080fd5b6103a482610343565b9392505050565b600080604083850312156103be57600080fd5b823591506103ce60208401610343565b9050925092905056fea264697066735822122095abf94297bbf57133bdede691035cf893d59cf163a7c11fac13263c2df9f20e64736f6c63430008190033","linkReferences":{}},"methodIdentifiers":{"isConfirmed(uint256,address)":"80f59a65","isOwner(address)":"2f54bf6e","minNumberConfirmationsRequired()":"cbc0fdbb","owners(uint256)":"025e7c27","submitTransaction(address,uint256)":"1d43b653","transactions(uint256)":"9ace38c2"},"id":24}